:10000000803102288731E12FFE0012001E00FE0B16
:10001000052800347008D03EF200FF30713DF30037
:10002000003073020A3003197202031C18281A28C0
:1000300001301B280030F400F5017408F000750849
:10004000F1000800003020003505BD000030360505
:10005000BE0080303705BF007F303805C000400843
:100060003F043E043D04031D362837283F28003056
:10007000B8000030B7000030B6000030B5000030E6
:100080003905BD0000303A05BE0080303B05BF0099
:100090007F303C05C00040083F043E043D04031D82
:1000A000522853285B280030BC000030BB000030D1
:1000B000BA000030B900B81F5E285F2877280030EA
:1000C000BD000030BE000030BF008030C0003508E9
:1000D000BD023608BE3B3708BF3B3808C03B40086E
:1000E000B8003F08B7003E08B6003D08B500BC1F89
:1000F0007A287B2893280030BD000030BE000030F5
:10010000BF008030C0003908BD023A08BE3B3B0842
:10011000BF3B3C08C03B4008BC003F08BB003E085A
:10012000BA003D08B9008030B8068030BC063C08F3
:100130003802031DA5283B083702031DA5283A08ED
:100140003602031DA528390835020318A828A92856
:10015000AB280310AC28031408002000A201A3015F
:10016000A001A101B7280130F6070030F73D76085D
:100170008400770885001200203A0319C028C1289E
:10018000B32876088400770885000008F73EF80059
:10019000FF3003180030F9000030790205300319F0
:1001A0007802031CD428D528B328E0280130200089
:1001B000A0000030A1000130F6070030F73D1529FE
:1001C00076088400770885000008F800F9017908AE
:1001D000003A0319EC28152978082B3A0319DB2873
:1001E000063A0319D6281529760884007708850071
:1001F0000008F80020002308F1002208F0000A306F
:10020000F2000030F3009131592180317108FA0079
:1002100078087002F900031CFA037908303E2000C8
:10022000A20000307A3DA300DB287608840077081E
:1002300085000008D03EF800FF3003180030F900B8
:10024000003079020A3003197802031C2829292971
:10025000F428200020082104031D2F2930293C29DF
:100260002209F8002309F900F80A0319F90A7808A5
:10027000F6007908F70040292308F7002208F60065
:1002800008002100C200D5012D08D9002C08D80093
:100290002B08D7002A08D60059082000B8002100F2
:1002A00058082000B700210057082000B6002100A0
:1002B00056082000B5000030BC000030BB00003004
:1002C000BA000030B9008031222081310318692939
:1002D0006A2981292100D501D50A5908F300580857
:1002E000F2005708F1005608F0009031CE2081311D
:1002F00073082100D9007208D8007108D70070086F
:10030000D6002100DA01DB0122002D082100C60001
:1003100022002C082100C5005508031990299129B5
:10032000A1295508031D952996299B292B30B90031
:100330000030BA009F292D30B9000030BA003908CA
:10034000D5005908F3005808F2005708F100560884
:10035000F00094318024813170037104031DB129B0
:10036000B229E329210055080319B729B829C4295E
:1003700055082300A000FF302100C507FF30C63D0F
:100380000130DA000030DB000730F0009830F10077
:100390005A08A03E913178218131FD302100C507F6
:1003A000FF30C63DA0302000A400210046082000F8
:1003B000A600210045082000A50021004208923136
:1003C000AB228131E02F21005908F3005808F200D8
:1003D0005708F1005608F0009431802481317008EC
:1003E0007104031DF429F529262A21005508031953
:1003F000FA29FB29072A55082300A000FF30210015
:10040000C507FF30C63D0130DA000030DB000B309D
:10041000F0009830F1005A08A03E913178218131E6
:10042000FD302100C507FF30C63DA0302000A400EC
:10043000210046082000A600210045082000A50054
:10044000210042089231AB228131E02F3F30210060
:10045000DF008030DE000030DD000030DC00C30152
:10046000C4015908F3005808F2005708F100560873
:10047000F0000030F7000030F6000030F5000030EA
:10048000F4009331612381310318472A482A842BD1
:10049000562A21004A08DF004908DE004808DD002E
:1004A0004708DC000130C3070030C43D4130200064
:1004B000A3002030A2000030A1000030A0002100E5
:1004C0005F082000A70021005E082000A600210090
:1004D0005D082000A50021005C082000A4008D31EB
:1004E000C5258131200023082100CA0020002208F0
:1004F0002100C900200021082100C8002000200898
:100500002100C70047085602AF004808573BB0001B
:100510004908583BB1004A08593BB2003208F30081
:100520003108F2003008F1002F08F00092311A2251
:100530008131F31BA92A7308031DAA2A7208031D1F
:10054000AA2A7108031DAA2A02307002031CA92AD4
:10055000AA2A492A21004A082000B8002100490897
:100560002000B700210048082000B60021004708FD
:100570002000B500210059082000BC0021005808C7
:100580002000BB00210057082000BA0021005608B7
:100590002000B900803122208131031CD02AD12AC9
:1005A000492A21005C085602AF005D08573BB000A5
:1005B0005E08583BB1005F08593BB2003208F300B7
:1005C0003108F2003008F1002F08F00092311A22B1
:1005D0008131F31BFA2A7308031DF92A7208031DDF
:1005E000F92A7108031DF92A023070020318F92A4A
:1005F000FA2A5D2B21005F08D9005E08D8005D084B
:10060000D7005C08D600842B41302000CC0020307D
:10061000CB000030CA000030C90021005F08200074
:10062000D00021005E082000CF0021005D082000DE
:10063000CE0021005C082000CD00883105208131EA
:1006400020004C082100DF0020004B082100DE00C4
:1006500020004A082100DD00200049082100DC00BC
:10066000FF30C307FF30C43D5C085602AF005D0891
:10067000573BB0005E08583BB1005F08593BB200E1
:100680003208F3003108F2003008F1002F08F000C2
:1006900092311A228131F31B5C2B7308031D5B2BF3
:1006A0007208031D5B2B7108031D5B2B0230700267
:1006B00003185B2B5C2B5D2BFA2A210059082000C4
:1006C000B800210058082000B7002100570820007A
:1006D000B600210056082000B50021005F08200068
:1006E000BC0021005E082000BB0021005D08200046
:1006F000BA0021005C082000B9008031222081313D
:10070000031C832B842B042B21002E08BC003C08E7
:10071000BD002200AF1B8D2B8E2B962B2F082100A6
:10072000B60022002E082100B5009B2B06302100C8
:10073000B5000030B6003608C1003508C0000130F1
:10074000C0070030C13D66303D06031DA82BA92B14
:10075000C12BC41FAC2BAD2BB72B3F30DF0080303B
:10076000DE000030DD000030DC00C301C401673072
:100770003C060319BC2BBD2BC12B4308C007440802
:10078000C13DD301D4015908CE005808CD00570807
:10079000CC005608CB005F08CA005E08C9005D089F
:1007A000C8005C08C700AB2C21005F082000CC000B
:1007B00021005E082000CB0021005D082000CA0057
:1007C00021005C082000C90021004E082000D00054
:1007D00021004D082000CF0021004C082000CE0051
:1007E00021004B082000CD008831052081312000F8
:1007F0004C08E6004B08E5004A08E4004908E3001D
:100800009431FF248131200066082100D2002000AD
:1008100065082100D100200064082100D0002000DC
:1008200063082100CF0052082000E6002100510893
:100830002000E500210050082000E40021004F08BE
:100840002000E30094310F2481312000640821004E
:10085000BF00200063082100BE005F082000A70041
:1008600021005E082000A60021005D082000A500F0
:1008700021005C082000A400210052082000A300F1
:10088000210051082000A200210050082000A100F2
:1008900021004F082000A0008D31C52581312000A6
:1008A0002308CC002208CB002108CA002008C90078
:1008B00021004E082000D00021004D082000CF006C
:1008C00021004C082000CE0021004B082000CD0064
:1008D00091319721813120004C082100CE00200069
:1008E0004B082100CD0020004A082100CC00200048
:1008F00049082100CB0041302000CC002030CB0043
:100900000030CA000030C90021005F082000D0007C
:1009100021005E082000CF0021005D082000CE00ED
:1009200021005C082000CD008831052081312000A5
:100930004C082100DF0020004B082100DE002000D1
:100940004A082100DD00200049082100DC000130B8
:10095000D3070030D43D5408803AAF004108803AB4
:100960002F02031DB52C40085302031CB82CB92CD0
:10097000D42B40302000A300A030A2000030A10002
:100980000030A00021005F082000A70021005E08C1
:100990002000A60021005D082000A50021005C08C1
:1009A0002000A4008D31C5258131200023082100BD
:1009B000D200200022082100D100200021082100BF
:1009C000D000200020082100CF004E082000B800F1
:1009D00021004D082000B70021004C082000B6007F
:1009E00021004B082000B500210052082000BC0067
:1009F000210051082000BB00210050082000BA004F
:100A000021004F082000B9008031222081310318D5
:100A10000A2D0B2D152D00302100D2000030D10001
:100A20000030D0000030CF003A2D21004E08F300F6
:100A30004D08F2004C08F1004B08F0005208F70096
:100A40005108F6005008F5004F08F4009331612377
:100A50008131031C2C2D2D2D3A2D21003E18312DD6
:100A6000322D3A2D0030D2000030D1000030D000BD
:100A70000030CF00210052082000B80021005108AA
:100A80002000B700210050082000B60021004F08C8
:100A90002000B500210059082000BC0021005808A2
:100AA0002000BB00210057082000BA002100560892
:100AB0002000B9008931AF218131200038082100A0
:100AC000CE00200037082100CD002000360821008C
:100AD000CC00200035082100CB004E082000B800D3
:100AE00021004D082000B70021004C082000B6006E
:100AF00021004B082000B5004130A3002030A200A7
:100B00000030A1000030A00021004A082000A7000A
:100B1000210049082000A600210048082000A50067
:100B2000210047082000A4008D31C5258131200017
:100B30002308BC002208BB002108BA002008B90025
:100B4000803122208131031CA62DA72DE22D0130FA
:100B50002100C3070030C43D41302000A3002030F5
:100B6000A2000030A1000030A00021004A082000AF
:100B7000A700210049082000A60021004808200005
:100B8000A500210047082000A4008D31C525813132
:100B9000200023082100CA00200022082100C900EB
:100BA000200021082100C800200020082100C700E3
:100BB00066303D06031DDD2DDE2DE22D0130C00720
:100BC0000030C13D21004A08DF004908DE00480826
:100BD000DD004708DC004408B4004308B300BB0153
:100BE000B701B801D301D4013D2F21005F082000D7
:100BF000CC0021005E082000CB0021005D08200011
:100C0000CA0021005C082000C90021004E08200015
:100C1000D00021004D082000CF0021004C0820000A
:100C2000CE0021004B082000CD0088310520813105
:100C300020004C08E6004B08E5004A08E40049089B
:100C4000E3009431FF248131200066082100D200A6
:100C5000200065082100D100200064082100D00098
:100C6000200063082100CF0052082000E600210088
:100C700051082000E500210050082000E400210078
:100C80004F082000E30094310F24813120006408D4
:100C9000803A2100AF0080302F02031D522E0A300F
:100CA000200063020318552E562E722E2100520882
:100CB0002000E600210051082000E5002100500836
:100CC0002000E40021004F082000E30094310F24AD
:100CD0008131200064082100BF002000630821004A
:100CE000BE00772E09302100BE000030BF003B0857
:100CF000031D7B2E7C2EA52EB41F7F2E802EA52EAD
:100D00005A08A03E8600013087002E308100013055
:100D1000DA070030DB3DFF30C507FF30C63DBB01C1
:100D2000BB0AA52E5A08A03E86000130870030304D
:100D300081000130DA070030DB3DFF30C507FF30AE
:100D4000C63DFF30B707FF30B83D37083804031DF4
:100D5000AA2EAB2E922E5A08A03E860001308700A4
:100D60003E08303E81000130DA070030DB3DFF30C5
:100D7000C507FF30C63D5F082000A70021005E08C0
:100D80002000A60021005D082000A50021005C08CD
:100D90002000A400210052082000A30021005108D7
:100DA0002000A200210050082000A10021004F08CF
:100DB0002000A0008D31C525813120002308CC0002
:100DC0002208CB002108CA002008C90021004E08D3
:100DD0002000D00021004D082000CF0021004C0849
:100DE0002000CE0021004B082000CD00913197213A
:100DF000813120004C082100CE0020004B0821004A
:100E0000CD0020004A082100CC0020004908210024
:100E1000CB0041302000CC002030CB000030CA0095
:100E20000030C90021005F082000D00021005E08CA
:100E30002000CF0021005D082000CE0021005C08CA
:100E40002000CD0088310520813120004C08210090
:100E5000DF0020004B082100DE0020004A082100AE
:100E6000DD00200049082100DC00FF30B307FF301F
:100E7000B43D0130D3070030D43D5408803AAF0070
:100E80004108803A2F02031D472F400853020318E0
:100E90004A2F4B2F592F21005B08803AAF0080303A
:100EA0002F02031D552F4B305A02031C582F592F68
:100EB000F52D4F302100D3000030D4005308A03E60
:100EC0008600013087008101A030F0005B08F2004D
:100ED0005A08F100A030AF005A082F025307923190
:100EE0008422813121005A085302DA005B08543B06
:100EF000DB005508031D7D2F7F2F0130802F003030
:100F0000AF00B0012F08D3003008D4002200C01C6D
:100F10008A2F8B2FBA2F9C2FFF302100DA07FF304A
:100F2000DB3D5A08A03E860001308700303081004A
:100F3000FF30C507FF30C63D21005408803AAF009E
:100F40004608803A2F02031DA72F450853020318B5
:100F5000AA2FAB2FBA2F21005408803AAF005B08AC
:100F6000803A2F02031DB62F5A085302031CB92FD3
:100F7000BA2F8C2F210055080319BF2FC02FCB2F5C
:100F8000FF30DA07FF30DB3D5A08A03E8600013013
:100F90008700550881005308C5025408C63B5A080B
:100FA000A03E2000A400210046082000A600210049
:100FB00045082000A500210042089231AB22813172
:100FC0000800C4308400903085005930860001301C
:100FD00087000A30803104208731203084000130BE
:100FE000850022309031A3208731A0308400013069
:100FF000850050309031A320873120008B31B72BF2
:10100400210013130800200050088039DA005035FD
:10101400E100CF1F0E280F2810286114610803195E
:10102400142815282528610A031D19281A2822289E
:101034000030D0000030CF000030CE000030CD00B2
:10104400CF17D0012D280030D0000030CF00003061
:10105400CE000030CD004C088039D1005108DA06AA
:101064004C35E200CB1F372838283928621462082F
:1010740003193D283E284E28620A031D42284328AE
:101084004B280030CC000030CB000030CA000030C8
:10109400C900CB17CC0156280030CC000030CB005F
:1010A4000030CA000030C9004C084B044A0449040B
:1010B400031D5D285E2877280030D0000030CF0063
:1010C4000030CE000030CD008030CF047F30D0041B
:1010D4005A08D1005108D0045008CC004F08CB0066
:1010E4004E08CA004D08C900AE296108031D7B28BB
:1010F4007C2885280030CC000030CB000030CA00AA
:101104000030C900AE296108D100D2015208D400D0
:1011140062085102D300031CD40353087F3EDB0052
:101124000030543DDC005008D9004F08D8004E0868
:10113400D7004D08D6000030D0000030CF0000307A
:10114400CE000030CD000030E0000030DF00003081
:10115400DE000030DD00E201ED2862080319B32847
:10116400B428CE280130D635D70DD80DD90D890B2A
:10117400B5280130CD35CE0DCF0DD00D890BBC284F
:10118400E01FC528C628C7284D140130DD35DE0D03
:10119400DF0DE00D890BC8284C085902031DDC281B
:1011A4004B085802031DDC284A085702031DDC289B
:1011B40049085602031CDF28E028E928601749087B
:1011C400D6024A08D73B4B08D83B4C08D93B0130E0
:1011D400D1005108E2071A306202031CF228F328F6
:1011E400AF2859085804570456040319FA28FB2851
:1011F40014295D1414290130CD35CE0DCF0DD00D39
:10120400890BFE28E01F0729082909294D140130FC
:10121400DD35DE0DDF0DE00D890B0A29FF30DB071C
:10122400FF30DC3DCF1F17291829FD28E201E01FFC
:101234001C291D293929FF305D05D100FF305E05C9
:10124400D200FF305F05D3007F306005D40054081E
:101254005304520451040319302931293429E20179
:10126400E20A39294D1C37293829392931296208DC
:1012740003193D293E2966290130CD070030CE3DB2
:101284000030CF3D0030D03D501C49294A29662901
:101294004D08D1004E08D2004F08D3005008D400A6
:1012A4000130D500D437D30CD20CD10CD50B542932
:1012B4005408D0005308CF005208CE005108CD0086
:1012C4000130DB070030DC3D5C08803AD10080301F
:1012D4005102031D6F29FF305B02031C722973291D
:1012E4008029FF302000DB000030DC000030D0001B
:1012F4000030CF000030CE000030CD0020005C086C
:10130400803AD10080305102031D8A2901305B02EA
:1013140003188D298E299A292000DB01DC01003075
:10132400D0000030CF000030CE000030CD00DA0114
:1013340020005B08E100611CA029A129A329CF1783
:10134400A7297F30D1005108CF056136D0005A0853
:10135400D1005108D0046E280800200038088039D4
:10136400C5003835C700B71FB829B929BA294714A9
:1013740047080319BE29BF29CF29470A031DC329DA
:10138400C429CC290030B8000030B7000030B600C2
:101394000030B500B717B801D7290030B8000030C5
:1013A400B7000030B6000030B5003C088039C600F4
:1013B400460845060319DF29E029E12945173C358C
:1013C400C600BB1FE629E729E82946144608031985
:1013D400EC29ED29FD29460A031DF129F229FA29F0
:1013E4000030BC000030BB000030BA000030B9004F
:1013F400BB17BC01052A0030BC000030BB00003024
:10140400BA000030B9004708460203180A2A0B2A1A
:10141400312A451F0E2A0F2A132A8030BD003D08A9
:10142400C5064708C8004608C7004808C60035086E
:10143400C8003908B5004808B9003608C8003A0899
:10144400B6004808BA003708C8003B08B700480887
:10145400BB003808C8003C08B8004808BC00C801F4
:101464004608BD00BE013E08C00047083D02BF005B
:10147400031CC0034008803AC10080304102031DB0
:10148400452A1A303F02031C482A492A7B2A200095
:101494003808370436043504031D512A532A013011
:1014A400542A0030C8000030B8000030B7000030C3
:1014B400B6000030B5004608C700822A481C632ADB
:1014C400642A682A48360138C8006A2A0310C80CFE
:1014D400351C6D2A6E2A6F2AC8170130BD00B83733
:1014E400B70CB60CB50CBD0B712A0130BD003D081C
:1014F400C707200046084702031C812A822A602A63
:10150400451B852A862ABC2A4708031D8A2A8B2A5A
:10151400942A0030B8000030B7000030B600003024
:10152400B500B62B3908B5073A08B63D3B08B73DB8
:101534003C08B83D381C9F2AA02A482B481CA32AE3
:10154400A42AA82A48360138C800AA2A0310C80CBD
:10155400351CAD2AAE2AAF2AC8170130BD00B837F2
:10156400B70CB60CB50CBD0BB12A0130BD003D085B
:10157400C707482B3808803ABD003C08803A3D0232
:10158400031DCE2A3B083702031DCE2A3A08360231
:10159400031DCE2A390835020318D12AD22A0A2B70
:1015A400FF30BD00FF30BE00FF30BF00FF30C00081
:1015B40035083902C10036083A3BC20037083B3BC4
:1015C400C30038083C3BC4004108BD074208BE3D87
:1015D4004308BF3D4408C03D4008B8003F08B70079
:1015E4003E08B6003D08B5008030BD003D08C50684
:1015F400C809C80A4808031D002B012B122B01300F
:10160400B5070030B63D0030B73D0030B83D122B71
:101614003908B5023A08B63B3B08B73B3C08B83B2F
:101624003808370436043504031D192B1A2B442BB0
:101634004808031D1E2B1F2B442B0030B80000301C
:10164400B7000030B6000030B500B62B0130B53518
:10165400B60DB70DB80D890B292BC81F322B332BB0
:10166400342B3514481C372B382B3B2B0314C80D53
:101674003D2B0310C80D47080319412B422B442B63
:101684000130C702B71F472B482B282BC601C81FA0
:101694004C2B4D2B5B2B48087F390319522B532BB2
:1016A400562BC601C60A5B2B351C592B5A2B5B2BB8
:1016B400532B460803195F2B602B8D2B0130B50784
:1016C4000030B63D0030B73D0030B83D381C6B2BC0
:1016D4006C2B8D2B3508BD003608BE003708BF00C3
:1016E4003808C0000130C100C037BF0CBE0CBD0CAF
:1016F400C10B762B4008B8003F08B7003E08B6007F
:101704003D08B500470A0319882B892B8D2B01301E
:10171400BD003D08C707470A0319912B922B972B4D
:101724004708031D962B972BA52B0030B8000030DB
:10173400B7000030B6000030B5004708031DA32BE6
:10174400A42BA52BC501471CA82BA92BAB2BB71782
:10175400AF2B7F30BD003D08B7054736B800C51F25
:10176400B42BB52BB62BB817080091312B218B3134
:101774002200B201B3010F30F0000030F1009131CA
:1017840015218B3106302200D2001330D100AD3048
:10179400890BCA2BD10BCA2BD20BCA2B00324B306C
:1017A400F0000030F100913115218B310630220018
:1017B400D2001330D100AD30890BDE2BD10BDE2BE0
:1017C400D20BDE2B0032883102208B31220032080A
:1017D400143EB2000030333DB30000309131032198
:1017E4008B3171082200BF007008BE004130AB008D
:1017F400BC30AA00A330A900D730A8002B082000D1
:10180400A70022002A082000A600220029082000A0
:10181400A500220028082000A4004030A300C03006
:10182400A2000030A1000030A0008D31C5258B310D
:1018340020002308BC002208BB002108BA002008AD
:10184400B9004230B8009630B7000030B60000301E
:10185400B5008931AF218B3120003808D00037081A
:10186400CF003608CE003508CD004030CC00A03083
:10187400CB000030CA000030C900883105208B310C
:1018840020004C08E6004B08E5004A08E40049083B
:10189400E30094310F248B31200064082200B1004E
:1018A400200063082200B0003308803AD100803061
:1018B4005102031D5F2C29303202031C622C632C5D
:1018C400862C00302100EA009830EB0022002B081F
:1018D4002100EF0022002A082100EE00220029083E
:1018E4002100ED00220028082100EC009031F420B2
:1018F4008B3122003108F1003008F00091311521BC
:101904008B312200B201B30122002B082000A70072
:1019140022002A082000A600220029082000A50091
:10192400220028082000A4004230A300C830A200EE
:101934000030A1000030A0008D31C5258B3120007E
:101944002308E6002208E5002108E4002008E3005B
:1019540094310F248B31200064082200B50020004C
:1019640063082200B400E830F6000330F7003508BD
:10197400F9003408F8009331AF238B317708220043
:10198400B7007608B6006430F6000030F700370878
:10199400F1003608F0001830F200FC30F300913109
:1019A40059218B31220034087007F8003508713D45
:1019B400F9009331AF238B3177082200B900760800
:1019C400B8000A30F6000030F7003708F100360896
:1019D400F0001830F200FC30F300913159218B31C2
:1019E40070082200D1007108D2003908F1003808CB
:1019F400F0009C30F200FF30F300913159218B311B
:101A0400700822005107D3007108523DD4003408F5
:101A14005307F8003508543DF9009331AF238B3157
:101A240077082200BB007608BA003708F1003608B0
:101A3400F0001830F200FC30F300913159218B3161
:101A440070082200D1007108D2003908F10038086A
:101A5400F0009C30F200FF30F300913159218B31BA
:101A6400700822005107D3007108523DD4003B088E
:101A7400F1003A08F000F630F200FF30F300913143
:101A840059218B31700822005307D5007108543D49
:101A9400D60034085507BC003508563DBD00D701B3
:101AA400D8012000171497101711971122003C0831
:101AB400593E860001308700010820009900033058
:101AC4002200D1009730890B652DD10B652D003292
:101AD4002000171097141711971122003A08593E45
:101AE400860001308700010820009900033022009D
:101AF400D1009730890B7C2DD10B7C2D0032200036
:101B0400171097101715971122003808593E8600B0
:101B14000130870001082000990099130330220046
:101B2400D1009730890B942DD10B942D00322000D5
:101B3400171097101711971522003608593E860082
:101B44000130870001082000990003302200D100F1
:101B54009730890BAB2DD10BAB2D00320130220015
:101B6400D7070030D83D5808803AD1008030510260
:101B7400031DBE2D0F305702031CC12DC22D532D42
:101B8400E82B80310228200023088039A80023355F
:101B9400AE00A21FCE2DCF2DD02D2E142E0803194A
:101BA400D42DD52DE42D2E0A031DD92DDA2DE22DA9
:101BB4000030A3000030A2000030A1000030A000DB
:101BC400A217EC2D0030A3000030A2000030A100C9
:101BD4000030A00027088039F9007908A8062735C5
:101BE400AD00A61FF62DF72DF82D2D142D08031981
:101BF400FC2DFD2D0C2E2D0A031D012E022E0A2E66
:101C04000030A7000030A6000030A5000030A4007A
:101C1400A617142E0030A7000030A6000030A5003F
:101C24000030A4002D080319182E192E1E2E2E087C
:101C3400031D1D2E1E2E272E0030A3000030A200EF
:101C44000030A1000030A000FF2F2008F00026087B
:101C540092313C228D3171082000B4007008B30029
:101C64003308F900FA01FB01FC017C08AC007B0895
:101C7400AB007A08AA007908A9003408F900FA012F
:101C8400FB01FC017C08B2007B08B1007A08B000BB
:101C94007908AF002108F000250892313C228D31EB
:101CA40071082000B4007008B3003308F900FA0189
:101CB400FB01FC017908A9077A08AA3D7B08AB3D22
:101CC4007C08AC3D3408F900FA01FB01FC017908F9
:101CD400AF077A08B03D7B08B13D7C08B23D2208CD
:101CE400F000240892313C228D3171082000B400A8
:101CF4007008B3003308F900FA01FB01FC0179080C
:101D0400A9077A08AA3D7B08AB3D7C08AC3D3408A2
:101D1400F900FA01FB01FC017908AF077A08B03D2C
:101D24007B08B13D7C08B23D0830A935AA0DAB0D46
:101D3400AC0D890B972E2108F000240892313C2227
:101D44008D3171082000B4007008B3003308A9076E
:101D54003408AA3D0030AB3DAC3D2008F000250816
:101D640092313C228D3171082000B4007008B30018
:101D74003308A9073408AA3D0030AB3DAC3D083018
:101D8400A935AA0DAB0DAC0D890BC22E2008F000AD
:101D9400240892313C228D3171082000B40070086F
:101DA400B3003308A9073408AA3D0030AB3DAC3D6D
:101DB4002108F000260892313C228D317108200060
:101DC400B4007008B3003308AF073408B03D0030E6
:101DD400B13DB23D2208F000250892313C228D31FC
:101DE40071082000B4007008B3003308AF0734084A
:101DF400B03D0030B13DB23D2208F00026089231DA
:101E04003C228D3171082000B4007008B3003308FF
:101E1400F9003408FA00FB01FC010830F935FA0D29
:101E2400FB0DFC0D890B102F7908AF077A08B03D24
:101E34007B08B13D7C08B23D2908F9002A08FA0064
:101E44002B08FB002C08FC001830FC36FB0CFA0CA9
:101E5400F90C890B272F7908AF077A08B03D7B0866
:101E6400B13D7C08B23D0830A935AA0DAB0DAC0DCF
:101E7400890B362F2E082D07F900FA01FA0D79087F
:101E8400823EB300FF307A3DB4005F2F0130AF359E
:101E9400B00DB10DB20D890B492FAC1F522F532F2A
:101EA400542F2F140130A935AA0DAB0DAC0D890B9D
:101EB400552FFF30B307FF30B43DB11F622F632F9E
:101EC400482FAD01AC1F672F682F842FFF302905E1
:101ED400F900FF302A05FA00FF302B05FB007F30A4
:101EE4002C05FC007C087B047A04790403197B2FFD
:101EF4007C2F7F2FAD01AD0A842F2F1C822F832FBF
:101F0400842F7C2F2D080319882F892FB12F01309E
:101F1400AF070030B03D0030B13D0030B23D321C5F
:101F2400942F952FB12F2F08F9003008FA003108AB
:101F3400FB003208FC000130FD00FC37FB0CFA0CFE
:101F4400F90CFD0B9F2F7C08B2007B08B1007A08C6
:101F5400B0007908AF000130B3070030B43D340855
:101F6400803AF90080307902031DBA2FFF30330222
:101F7400031CBD2FBE2FC82F7F302000B20080303D
:101F8400B1000030B0000030AF00F32F200034085F
:101F9400803AF90080307902031DD22F01303302D8
:101FA4000318D52FD62FE12F00302000B2000030C7
:101FB400B1000030B0000030AF00A801F32F2000C2
:101FC4003308AE00FF30AF05FF30B0057F30B105F8
:101FD4000030B2052E1CEF2FF02FF12FB1172E3643
:101FE400B2002808F9007908B2043208A3003108C5
:0C1FF400A2003008A1002F08A000080087
:1021160071082200E4007008E3000800710822003C
:10212600E8007008E700080071082200E600700861
:10213600E5000800F10071089031BA2090310800DE
:10214600640080010131890BA42800342F00960118
:102156009701980199019A019B01080063303100AB
:102166008D008F0191010630930092010800F00066
:102176002E000F1EBF28C028BB28700822009A0018
:102186000800C034F934A434B0349934923483341A
:10219600F834803498347308720471047004031997
:1021A600D528D628D8288030F306080080302700A6
:1021B6008E0031308D00C0308C0024001F08F339AA
:1021C60004389F0008000130250090008F0191011E
:1021D60063308D008C012E009010803025008E001B
:1021E6000800EC302200D00021006B08E5006A08E8
:1021F600E4005030E60000309131B72190310800FC
:10220600F200720821009E009317131313140000A6
:10221600210013180F2910290B290D08F1000C08AD
:10222600F00008007108F3007008F200F336F20CB3
:10223600F336F20C720827008D0070080339F2009D
:102246000530F235FF3E031D242972358C00080047
:102256009031A92091319231E02291319031B12013
:1022660091319031D9209131913141219131903183
:10227600E62091319131F8219131080022008E013A
:102286008F0190019101920193018D0121009E0120
:102296009B019C0194019501960197019A01990170
:1022A60003309800843093009D010800F401F50185
:1022B600701C5E295F2963297208F4077308F53DCF
:1022C6000130F235F30D890B64290130F136F00C3B
:1022D600890B692970087104031D722973295B290A
:1022E6007508F1007408F0000800F7007108F500A1
:1022F6007008F4007708F60076088600013087003B
:10230600F60A7508F3007408F200F40A0319F50AD0
:1023160072088400730885000008C03F8908031D01
:10232600952996297F29080080302000CC06500880
:10233600B8004F08B7004E08B6004D08B5004C0867
:10234600BC004B08BB004A08BA004908B9008931ED
:10235600AF21913120003808CC003708CB00360871
:10236600CA003508C90008002100E7006508E90031
:102376006408E800CA29E8302000ED00210066085C
:102386002000EE0021006708963140269131210099
:1023960068088400690885001200031DD329D42922
:1023A600BE29E401E5010800F401F40A20307006B4
:1023B60071040319DF29E029F0297008F73EF200BD
:1023C600FF30713DF30000307302053003197202CD
:1023D600031CEE29EF29F029F4017408F200F30139
:1023E6007208F0007308F1000800083022009F0010
:1023F60090309D0024309E0067309B009C01003089
:10240600F0000030F1009031912091310030F00061
:102416000030F1009031972091310030F00000300B
:10242600F10090318B2091312200C1010800F31B8D
:102436002B2A7308031D2A2A7208031D2A2A7108EB
:10244600031D2A2A0130700203182A2A2B2A3B2A46
:102456007009F0007109F1007209F2007309F300C6
:10246600F00A0319F10A0319F20A0319F30A3B2ABF
:102476000800F800F401F5017008F200F301720893
:10248600F6007308F700781C492A4A2A4E2A76086D
:10249600F4077708F53D0130F635F70D890B4F2A1D
:1024A6000310F80C7808031D592A5A2A462A75087B
:1024B600F1007408F00008002000A300A101A201A9
:1024C600752A2008FB00FC017B08F2007C08F3005B
:1024D6007A08F40093312023923101302000A107BD
:1024E6000030A23D21082307FB007B08860001304F
:1024F60087000108A0002008031D822A832A642A77
:102506000800F5007008F7007508F6009E2A77089F
:102516008600013087000108F4000130F3007308DB
:10252600F7077608860001308700740881000130BD
:10253600F3007308F6070130F1020030F23B710A2E
:10254600031DA92A720A031DA92AAA2A8A2A080093
:102556002000AB00A61BB02AB12AB62A2608AA007C
:102566002508A900B82AA901AA01A701A801CA2A13
:102576002030F2000030F30020002B08F4009331E5
:102586002023923101302000A7070030A83D2808FB
:10259600803AFD002A08803A7D02031DD42A2908C4
:1025A6002702031CD72AD82ABB2A20002B08FA00A8
:1025B600240892315F229231080020009A01990185
:1025C600960197019801073095007F309100F03011
:1025D6009200BF30930094013E00D9017F30CE00B7
:1025E600F030C3000730E400FF30B800DA01E5013F
:1025F600C401B901CF01E601BA01C501D001DB0171
:10260600FF30BB00FF30C600FF30D100FF30DC00DA
:102616000730E700FF30BC00FF30C700FF30D200B4
:10262600FF30DD000730E8000E30970017303D0020
:10263600CB0010303E00A600080074080319242BB6
:10264600252B2A2B7408031D292B2A2B2F2B7208C6
:1026560090319D209331602B7408083E86008701D7
:10266600160001040319382B392B572B7408083E22
:1026760086008701403FF500413FF6007408023EA0
:1026860086008701403FF700413FF8007808803A0E
:10269600F9007608803A7902031D532B75087702F4
:1026A6000318562B572B602B7408023E86008701B1
:1026B6000130810741310318810A08000030700596
:1026C600F80000307105F90080307205FA007F309D
:1026D6007305FB007B087A0479047804031D742BC8
:1026E600752B7D2B0030F3000030F2000030F10036
:1026F6000030F00000307405F80000307505F90070
:1027060080307605FA007F307705FB007B087A0477
:1027160079047804031D902B912B992B0030F70038
:102726000030F6000030F5000030F400770873063C
:10273600031DA72B76087206031DA72B75087106C5
:10274600031DA72B740870060319AA2BAB2BAD2B00
:102756000310AE2B031408002000A101F71FB42BB1
:10276600B52BBC2BF609F709F60A0319F70AA101DE
:10277600A10AF91FBF2BC02BC92BF809F909F80AC2
:102786000319F90A0130FA007A08A106A201A30189
:10279600760877040319D02BD12B002CA001A00AB0
:1027A600DD2B0130F635F70D890BD52B0130FA00FC
:1027B6007A08A007F71FE02BE12BD42B0130A235B6
:1027C600A30D890BE22B77087902031DEC2B760803
:1027D6007802031CEF2BF02BF52B7608F80277080E
:1027E600F93B22140130F736F60C890BF62B013033
:1027F600A002031DFF2B002CE12B21080319042C3A
:10280600052C0A2CA209A309A20A0319A30A230864
:10281600F7002208F600080003102000650D660D7B
:10282600EC006C08031D182C192C222C0030E60035
:102836000030E5000030E4000030E3007F2C630840
:10284600E7006408E8006508E9006608EA001F304A
:10285600EA36E90CE80CE70C890B2B2C6708EB0031
:10286600E517FF30E305FF30E405FF30E5050030EE
:10287600E6059630EC02EC1F412C422C5A2C6C08D3
:10288600803A973E0318482C492C4A2C192C0130C3
:10289600E636E50CE40CE30C890B4B2C0130E70023
:1028A6006708EC07031D582C592C4A2C6F2C203036
:1028B6006C02031C5F2C602C6A2C192C0130E3354A
:1028C600E40DE50DE60D890B622C0130EC026C0877
:1028D600031D6E2C6F2C612C6B080319732C742C42
:1028E6007F2CE309E409E509E609E30A0319E40A8A
:1028F6000319E50A0319E60A080022002708200042
:10290600A500220026082000A40022002508200099
:10291600A300220024082000A2007308A500720864
:10292600A4007108A3007008A2002208F40023087E
:10293600F5002408F6002508F7001730F736F60CE0
:10294600F50CF40C890BA12CFF307405A0000030A7
:102956007505A10020082104031DB22CB32CD42C2C
:102966002208F4002308F5002408F6002508F700DD
:102976000130F435F50DF60DF70D890BBC2C7708F3
:10298600760475047404031DC92CCA2CCF2C02309E
:10299600F0000030F100FE2C0330F0000030F100B2
:1029A600FE2C200A2104031DD92CDA2CFA2C22082D
:1029B600F4002308F5002408F6002508F70009307E
:1029C600F435F50DF60DF70D890BE32C7708760433
:1029D600750474040319F02CF22C0130F32C00302A
:1029E600F800F9017808F0007908F100FE2C0430AF
:1029F600F0000030F1000800220023082100A900A1
:102A0600220022082100A800220021082100A70098
:102A1600220020082100A600200066082100A90047
:102A2600200065082100A800200064082100A700F6
:102A3600200063082100A60026082000E7002100E8
:102A460027082000E800210028082000E9002100CE
:102A560029082000EA001730EA36E90CE80CE70CF2
:102A6600890B2F2DFF306705EB0000306805EC0061
:102A76006B08813E2100A400FF3020006C3D210040
:102A8600A5002508803A2000E70080306702031D74
:102A96004F2D173021002402031C522D532D542D87
:102AA6003F2E2100A51B582D592DDF2DFF3020006C
:102AB600E700FF30E8007F30E9000030EA0021003F
:102AC600240A20006A2DEA37E90CE80CE70C890B8A
:102AD600662D6A082100A300200069082100A200D3
:102AE600200068082100A100200067082100A0003E
:102AF600260820052000E7002100270821052000E0
:102B0600E8002100280822052000E9002100290804
:102B160023052000EA006A08690468046704031DA7
:102B2600952D962D972D532D210026082000E70080
:102B3600210027082000E800210028082000E900DD
:102B4600210029082000EA001F30EA36E90CE80CCB
:102B5600E70C890BA82D6A08690468046704031941
:102B6600B52DB62DBF2D21002008A6072108A73DAB
:102B76002208A83D2308A93D210020092000E700DE
:102B8600210021092000E800210022092000E90097
:102B9600210023092000EA0067082100A60520007D
:102BA60068082100A705200069082100A805200063
:102BB6006A082100A9052F2E26082000E70021001B
:102BC60027082000E800210028082000E90021004D
:102BD60029082000EA001F30EA36E90CE80CE70C69
:102BE600890BEF2D6A08690468046704031DFC2D30
:102BF600FD2D072E00302100A9000030A80000306E
:102C0600A7000030A6002F2E210026082000E7008E
:102C1600210027082000E800210028082000E900FC
:102C2600210029082000EA000130E735E80DE90D0A
:102C3600EA0D890B182E6A086904680467040319EB
:102C4600252E262E2F2EBF302100A9008030A80069
:102C56000030A7000030A600210029082000E60069
:102C6600210028082000E500210027082000E400B4
:102C7600210026082000E30008002200CC002000E6
:102C86006D0886008701403F2100E000413FE100DA
:102C960060088400610885001200253A031D542E41
:102CA600552EE42F20006D0886008701013081072C
:102CB60041310318810A2200AC01AD010310003036
:102CC60003180130C000FF30AE00FF30AF00CA016C
:102CD600CB01992E2200C01420006D0886008701C2
:102CE6000130810741310318810A992E01302200F3
:102CF600CA000030CB00992E20006D08860087019F
:102D0600403F2100E000413FE10060088400610887
:102D160085000008E200E3016308003A0319942ED7
:102D2600792E6208303A03196D2E792E22004A0850
:102D36004B0403199F2EA02E7F2E20006D088600BF
:102D46008701403F2100E000413FE1006008840028
:102D56006108850012002E3A031DB22EB32E202FD5
:102D66002200AE01AF0120006D0886008701013008
:102D7600810741310318810A6D0886008701403FAB
:102D86002100E000413FE100600884006108850001
:102D960012002A3A031DD02ED12EE92E20006D08EE
:102DA600860087010130810741310318810A6E08C8
:102DB6008600013087000108840085010230810702
:102DC600003F2200AE00013FAF00202F20006D081B
:102DD60086008701403FF600413FF7008031AD2075
:102DE600963177082200AF007608AE00032F200048
:102DF6006D08860087010130810741310318810A79
:102E060020006D0886008701403F2100E000413F19
:102E1600E10060088400610885000008D03EE200F9
:102E2600FF3003180030E300003063020A30031954
:102E36006202031C1F2F202FFA2E20006D08860029
:102E46008701403F2200CE00413FCF004E0884005C
:102E56004F0885000008CD003D2F01302200CE0727
:102E66000030CF3D512F6C302200CD00512F220073
:102E7600CD01512F4D082100E000E1016108003A23
:102E86000319462F3A2F60084C3A0319302F2A3A75
:102E96000319362F0A3A0319302F3A2F4E088400A9
:102EA6004F0885001200663A031D5A2F5B2FDA2F52
:102EB600842F20006E0886000130870001088400F8
:102EC600850104308107003F2200C200013FC30094
:102ED600023FC400033FC500952F20006E08860000
:102EE6000130870001088400850104308107003F16
:102EF6002200C200013FC300023FC400033FC500D9
:102F0600952F4D082100E000E1016108003A031900
:102F16008D2F952F60084C3A0319702F203A03190C
:102F26005C2F952F22004E08013E2100E000003064
:102F360022004F3D2100E10020006D088600870138
:102F460021006008C03F6108C13FC72F2200450825
:102F56002100AD00220044082100AC0022004308F5
:102F66002100AB00220042082100AA0022004E08E0
:102F760084004F08850000082100AE0022004C089E
:102F8600813141219631FF2F22004E0884004F08DF
:102F9600850000082100E000E1016108003A0319FC
:102FA600D52FDA2F6008663A0319A92FDA2F2000E9
:102FB6006D08860087010130810741310318810AB7
:102FC600FF2F20006D0886008701403F2100E000AA
:102FD600413FE10060088400610885000008E200C6
:102FE600E3016208F2006308F30022004C08F400D3
:102FF600933120239631DA2F0800253430342E34CD
:10300600323466340A34003469346E34663400343B
:083016006E3461346E340034A5
:020000040001F9
:08000000FF3FFF3FFF3FFF3F00
:0A000E00EC3FFF3F9F3FFF3FFF3F25
:00000001FF
